{
	"data": {
		"bytecode": {
			"linkReferences": {},
			"object": "6080604052348015600e575f80fd5b50610fa58061001c5f395ff3fe608060405234801561000f575f80fd5b506004361061004a575f3560e01c8063259306871461004e57806367010e071461007e578063742008661461009a5780639550975a146100b6575b5f80fd5b6100686004803603810190610063919061058c565b6100d2565b604051610075919061069d565b60405180910390f35b6100986004803603810190610093919061058c565b6101be565b005b6100b460048036038101906100af91906107e9565b610250565b005b6100d060048036038101906100cb91906107e9565b610312565b005b6100da6104cf565b5f82815481106100ed576100ec610830565b5b905f5260205f2090600302016040518060600160405290815f820180546101139061088a565b80601f016020809104026020016040519081016040528092919081815260200182805461013f9061088a565b801561018a5780601f106101615761010080835404028352916020019161018a565b820191905f5260205f20905b81548152906001019060200180831161016d57829003601f168201915b50505050508152602001600182015f9054906101000a900460ff161515151581526020016002820154815250509050919050565b60015f82815481106101d3576101d2610830565b5b905f5260205f2090600302016001015f6101000a81548160ff0219169083151502179055507f7aeb45f429791ce52a7a186f1d60c76254a5074ef9350f6ab3a4dea167f5d08b5f828154811061022c5761022b610830565b5b905f5260205f2090600302016040516102459190610a03565b60405180910390a150565b5f60405180606001604052808381526020015f151581526020014281525090505f81908060018154018082558091505060019003905f5260205f2090600302015f909190919091505f820151815f0190816102ab9190610bae565b506020820151816001015f6101000a81548160ff0219169083151502179055506040820151816002015550507f02523e83e6c0ab38b8a846b96ec903ac79c06d05eec18dc0111202539d9718ff81604051610306919061069d565b60405180910390a15050565b5f808054905090505f5b818110156104c957826040516020016103359190610cb7565b604051602081830303815290604052805190602001205f828154811061035e5761035d610830565b5b905f5260205f2090600302015f0160405160200161037c9190610d4d565b60405160208183030381529060405280519060200120036104bc575f6001836103a59190610d90565b815481106103b6576103b5610830565b5b905f5260205f2090600302015f82815481106103d5576103d4610830565b5b905f5260205f2090600302015f8201815f0190816103f39190610dd8565b50600182015f9054906101000a900460ff16816001015f6101000a81548160ff021916908315150217905550600282015481600201559050505f80548061043d5761043c610ebd565b5b600190038181905f5260205f2090600302015f8082015f61045e91906104f0565b600182015f6101000a81549060ff0219169055600282015f9055505090557f44874d5e319f7c117163ea611938149d526da88a45b36c80c35240d2fc03ed4183426040516104ad929190610f41565b60405180910390a150506104cc565b808060010191505061031c565b50505b50565b6040518060600160405280606081526020015f151581526020015f81525090565b5080546104fc9061088a565b5f825580601f1061050d575061052a565b601f0160209004905f5260205f2090810190610529919061052d565b5b50565b5b80821115610544575f815f90555060010161052e565b5090565b5f604051905090565b5f80fd5b5f80fd5b5f819050919050565b61056b81610559565b8114610575575f80fd5b50565b5f8135905061058681610562565b92915050565b5f602082840312156105a1576105a0610551565b5b5f6105ae84828501610578565b91505092915050565b5f81519050919050565b5f82825260208201905092915050565b8281835e5f83830152505050565b5f601f19601f8301169050919050565b5f6105f9826105b7565b61060381856105c1565b93506106138185602086016105d1565b61061c816105df565b840191505092915050565b5f8115159050919050565b61063b81610627565b82525050565b61064a81610559565b82525050565b5f606083015f8301518482035f86015261066a82826105ef565b915050602083015161067f6020860182610632565b5060408301516106926040860182610641565b508091505092915050565b5f6020820190508181035f8301526106b58184610650565b905092915050565b5f80fd5b5f80fd5b7f4e487b71000000000000000000000000000000000000000000000000000000005f52604160045260245ffd5b6106fb826105df565b810181811067ffffffffffffffff8211171561071a576107196106c5565b5b80604052505050565b5f61072c610548565b905061073882826106f2565b919050565b5f67ffffffffffffffff821115610757576107566106c5565b5b610760826105df565b9050602081019050919050565b828183375f83830152505050565b5f61078d6107888461073d565b610723565b9050828152602081018484840111156107a9576107a86106c1565b5b6107b484828561076d565b509392505050565b5f82601f8301126107d0576107cf6106bd565b5b81356107e084826020860161077b565b91505092915050565b5f602082840312156107fe576107fd610551565b5b5f82013567ffffffffffffffff81111561081b5761081a610555565b5b610827848285016107bc565b91505092915050565b7f4e487b71000000000000000000000000000000000000000000000000000000005f52603260045260245ffd5b7f4e487b71000000000000000000000000000000000000000000000000000000005f52602260045260245ffd5b5f60028204905060018216806108a157607f821691505b6020821081036108b4576108b361085d565b5b50919050565b5f819050815f5260205f209050919050565b5f81546108d88161088a565b6108e281866105c1565b9450600182165f81146108fc576001811461091257610944565b60ff198316865281151560200286019350610944565b61091b856108ba565b5f5b8381101561093c5781548189015260018201915060208101905061091d565b808801955050505b50505092915050565b5f815f1c9050919050565b5f60ff82169050919050565b5f6109766109718361094d565b610958565b9050919050565b5f819050919050565b5f6109986109938361094d565b61097d565b9050919050565b5f606083015f8084018583035f8701526109b983826108cc565b925050600184015490506109cc81610964565b6109d96020870182610632565b50600284015490506109ea81610986565b6109f76040870182610641565b50819250505092915050565b5f6020820190508181035f830152610a1b818461099f565b905092915050565b5f6020601f8301049050919050565b5f82821b905092915050565b5f60088302610a6d7fffffffffffffffffffffffffffffffffffffffffffffffffffffffffffffffff82610a32565b610a778683610a32565b95508019841693508086168417925050509392505050565b5f819050919050565b5f610ab2610aad610aa884610559565b610a8f565b610559565b9050919050565b5f819050919050565b610acb83610a98565b610adf610ad782610ab9565b848454610a3e565b825550505050565b5f90565b610af3610ae7565b610afe818484610ac2565b505050565b5b81811015610b2157610b165f82610aeb565b600181019050610b04565b5050565b601f821115610b6657610b37816108ba565b610b4084610a23565b81016020851015610b4f578190505b610b63610b5b85610a23565b830182610b03565b50505b505050565b5f82821c905092915050565b5f610b865f1984600802610b6b565b1980831691505092915050565b5f610b9e8383610b77565b9150826002028217905092915050565b610bb7826105b7565b67ffffffffffffffff811115610bd057610bcf6106c5565b5b610bda825461088a565b610be5828285610b25565b5f60209050601f831160018114610c16575f8415610c04578287015190505b610c0e8582610b93565b865550610c75565b601f198416610c24866108ba565b5f5b82811015610c4b57848901518255600182019150602085019450602081019050610c26565b86831015610c685784890151610c64601f891682610b77565b8355505b6001600288020188555050505b505050505050565b5f81905092915050565b5f610c91826105b7565b610c9b8185610c7d565b9350610cab8185602086016105d1565b80840191505092915050565b5f610cc28284610c87565b915081905092915050565b5f8154610cd98161088a565b610ce38186610c7d565b9450600182165f8114610cfd5760018114610d1257610d44565b60ff1983168652811515820286019350610d44565b610d1b856108ba565b5f5b83811015610d3c57815481890152600182019150602081019050610d1d565b838801955050505b50505092915050565b5f610d588284610ccd565b915081905092915050565b7f4e487b71000000000000000000000000000000000000000000000000000000005f52601160045260245ffd5b5f610d9a82610559565b9150610da583610559565b9250828203905081811115610dbd57610dbc610d63565b5b92915050565b5f81549050610dd18161088a565b9050919050565b818103610de6575050610ebb565b610def82610dc3565b67ffffffffffffffff811115610e0857610e076106c5565b5b610e12825461088a565b610e1d828285610b25565b5f601f831160018114610e4a575f8415610e38578287015490505b610e428582610b93565b865550610eb4565b601f198416610e58876108ba565b9650610e63866108ba565b5f5b82811015610e8a57848901548255600182019150600185019450602081019050610e65565b86831015610ea75784890154610ea3601f891682610b77565b8355505b6001600288020188555050505b5050505050505b565b7f4e487b71000000000000000000000000000000000000000000000000000000005f52603160045260245ffd5b5f82825260208201905092915050565b5f610f04826105b7565b610f0e8185610eea565b9350610f1e8185602086016105d1565b610f27816105df565b840191505092915050565b610f3b81610559565b82525050565b5f6040820190508181035f830152610f598185610efa565b9050610f686020830184610f32565b939250505056fea26469706673582212208279dcfe884fa6c767f3d8834e928580b198667ca8224d7295751b0712dc59eb64736f6c634300081a0033",
			"opcodes": "PUSH1 0x80 PUSH1 0x40 MSTORE CALLVALUE DUP1 ISZERO PUSH1 0xE JUMPI PUSH0 DUP1 REVERT JUMPDEST POP PUSH2 0xFA5 DUP1 PUSH2 0x1C PUSH0 CODECOPY PUSH0 RETURN INVALID PUSH1 0x80 PUSH1 0x40 MSTORE CALLVALUE DUP1 ISZERO PUSH2 0xF JUMPI PUSH0 DUP1 REVERT JUMPDEST POP PUSH1 0x4 CALLDATASIZE LT PUSH2 0x4A JUMPI PUSH0 CALLDATALOAD PUSH1 0xE0 SHR DUP1 PUSH4 0x25930687 EQ PUSH2 0x4E JUMPI DUP1 PUSH4 0x67010E07 EQ PUSH2 0x7E JUMPI DUP1 PUSH4 0x74200866 EQ PUSH2 0x9A JUMPI DUP1 PUSH4 0x9550975A EQ PUSH2 0xB6 JUMPI JUMPDEST PUSH0 DUP1 REVERT JUMPDEST PUSH2 0x68 PUSH1 0x4 DUP1 CALLDATASIZE SUB DUP2 ADD SWAP1 PUSH2 0x63 SWAP2 SWAP1 PUSH2 0x58C JUMP JUMPDEST PUSH2 0xD2 JUMP JUMPDEST PUSH1 0x40 MLOAD PUSH2 0x75 SWAP2 SWAP1 PUSH2 0x69D JUMP JUMPDEST PUSH1 0x40 MLOAD DUP1 SWAP2 SUB SWAP1 RETURN JUMPDEST PUSH2 0x98 PUSH1 0x4 DUP1 CALLDATASIZE SUB DUP2 ADD SWAP1 PUSH2 0x93 SWAP2 SWAP1 PUSH2 0x58C JUMP JUMPDEST PUSH2 0x1BE JUMP JUMPDEST STOP JUMPDEST PUSH2 0xB4 PUSH1 0x4 DUP1 CALLDATASIZE SUB DUP2 ADD SWAP1 PUSH2 0xAF SWAP2 SWAP1 PUSH2 0x7E9 JUMP JUMPDEST PUSH2 0x250 JUMP JUMPDEST STOP JUMPDEST PUSH2 0xD0 PUSH1 0x4 DUP1 CALLDATASIZE SUB DUP2 ADD SWAP1 PUSH2 0xCB SWAP2 SWAP1 PUSH2 0x7E9 JUMP JUMPDEST PUSH2 0x312 JUMP JUMPDEST STOP JUMPDEST PUSH2 0xDA PUSH2 0x4CF JUMP JUMPDEST PUSH0 DUP3 DUP2 SLOAD DUP2 LT PUSH2 0xED JUMPI PUSH2 0xEC PUSH2 0x830 JUMP JUMPDEST JUMPDEST SWAP1 PUSH0 MSTORE PUSH1 0x20 PUSH0 KECCAK256 SWAP1 PUSH1 0x3 MUL ADD PUSH1 0x40 MLOAD DUP1 PUSH1 0x60 ADD PUSH1 0x40 MSTORE SWAP1 DUP2 PUSH0 DUP3 ADD DUP1 SLOAD PUSH2 0x113 SWAP1 PUSH2 0x88A JUMP JUMPDEST DUP1 PUSH1 0x1F ADD PUSH1 0x20 DUP1 SWAP2 DIV MUL PUSH1 0x20 ADD PUSH1 0x40 MLOAD SWAP1 DUP2 ADD PUSH1 0x40 MSTORE DUP1 SWAP3 SWAP2 SWAP1 DUP2 DUP2 MSTORE PUSH1 0x20 ADD DUP3 DUP1 SLOAD PUSH2 0x13F SWAP1 PUSH2 0x88A JUMP JUMPDEST DUP1 ISZERO PUSH2 0x18A JUMPI DUP1 PUSH1 0x1F LT PUSH2 0x161 JUMPI PUSH2 0x100 DUP1 DUP4 SLOAD DIV MUL DUP4 MSTORE SWAP2 PUSH1 0x20 ADD SWAP2 PUSH2 0x18A JUMP JUMPDEST DUP3 ADD SWAP2 SWAP1 PUSH0 MSTORE PUSH1 0x20 PUSH0 KECCAK256 SWAP1 JUMPDEST DUP2 SLOAD DUP2 MSTORE SWAP1 PUSH1 0x1 ADD SWAP1 PUSH1 0x20 ADD DUP1 DUP4 GT PUSH2 0x16D JUMPI DUP3 SWAP1 SUB PUSH1 0x1F AND DUP3 ADD SWAP2 JUMPDEST POP POP POP POP POP DUP2 MSTORE PUSH1 0x20 ADD PUSH1 0x1 DUP3 ADD PUSH0 SWAP1 SLOAD SWAP1 PUSH2 0x100 EXP SWAP1 DIV PUSH1 0xFF AND ISZERO ISZERO ISZERO ISZERO DUP2 MSTORE PUSH1 0x20 ADD PUSH1 0x2 DUP3 ADD SLOAD DUP2 MSTORE POP POP SWAP1 POP SWAP2 SWAP1 POP JUMP JUMPDEST PUSH1 0x1 PUSH0 DUP3 DUP2 SLOAD DUP2 LT PUSH2 0x1D3 JUMPI PUSH2 0x1D2 PUSH2 0x830 JUMP JUMPDEST JUMPDEST SWAP1 PUSH0 MSTORE PUSH1 0x20 PUSH0 KECCAK256 SWAP1 PUSH1 0x3 MUL ADD PUSH1 0x1 ADD PUSH0 PUSH2 0x100 EXP DUP2 SLOAD DUP2 PUSH1 0xFF MUL NOT AND SWAP1 DUP4 ISZERO ISZERO MUL OR SWAP1 SSTORE POP PUSH32 0x7AEB45F429791CE52A7A186F1D60C76254A5074EF9350F6AB3A4DEA167F5D08B PUSH0 DUP3 DUP2 SLOAD DUP2 LT PUSH2 0x22C JUMPI PUSH2 0x22B PUSH2 0x830 JUMP JUMPDEST JUMPDEST SWAP1 PUSH0 MSTORE PUSH1 0x20 PUSH0 KECCAK256 SWAP1 PUSH1 0x3 MUL ADD PUSH1 0x40 MLOAD PUSH2 0x245 SWAP2 SWAP1 PUSH2 0xA03 JUMP JUMPDEST PUSH1 0x40 MLOAD DUP1 SWAP2 SUB SWAP1 LOG1 POP JUMP JUMPDEST PUSH0 PUSH1 0x40 MLOAD DUP1 PUSH1 0x60 ADD PUSH1 0x40 MSTORE DUP1 DUP4 DUP2 MSTORE PUSH1 0x20 ADD PUSH0 ISZERO ISZERO DUP2 MSTORE PUSH1 0x20 ADD TIMESTAMP DUP2 MSTORE POP SWAP1 POP PUSH0 DUP2 SWAP1 DUP1 PUSH1 0x1 DUP2 SLOAD ADD DUP1 DUP3 SSTORE DUP1 SWAP2 POP POP PUSH1 0x1 SWAP1 SUB SWAP1 PUSH0 MSTORE PUSH1 0x20 PUSH0 KECCAK256 SWAP1 PUSH1 0x3 MUL ADD PUSH0 SWAP1 SWAP2 SWAP1 SWAP2 SWAP1 SWAP2 POP PUSH0 DUP3 ADD MLOAD DUP2 PUSH0 ADD SWAP1 DUP2 PUSH2 0x2AB SWAP2 SWAP1 PUSH2 0xBAE JUMP JUMPDEST POP PUSH1 0x20 DUP3 ADD MLOAD DUP2 PUSH1 0x1 ADD PUSH0 PUSH2 0x100 EXP DUP2 SLOAD DUP2 PUSH1 0xFF MUL NOT AND SWAP1 DUP4 ISZERO ISZERO MUL OR SWAP1 SSTORE POP PUSH1 0x40 DUP3 ADD MLOAD DUP2 PUSH1 0x2 ADD SSTORE POP POP PUSH32 0x2523E83E6C0AB38B8A846B96EC903AC79C06D05EEC18DC0111202539D9718FF DUP2 PUSH1 0x40 MLOAD PUSH2 0x306 SWAP2 SWAP1 PUSH2 0x69D JUMP JUMPDEST PUSH1 0x40 MLOAD DUP1 SWAP2 SUB SWAP1 LOG1 POP POP JUMP JUMPDEST PUSH0 DUP1 DUP1 SLOAD SWAP1 POP SWAP1 POP PUSH0 JUMPDEST DUP2 DUP2 LT ISZERO PUSH2 0x4C9 JUMPI DUP3 PUSH1 0x40 MLOAD PUSH1 0x20 ADD PUSH2 0x335 SWAP2 SWAP1 PUSH2 0xCB7 JUMP JUMPDEST PUSH1 0x40 MLOAD PUSH1 0x20 DUP2 DUP4 SUB SUB DUP2 MSTORE SWAP1 PUSH1 0x40 MSTORE DUP1 MLOAD SWAP1 PUSH1 0x20 ADD KECCAK256 PUSH0 DUP3 DUP2 SLOAD DUP2 LT PUSH2 0x35E JUMPI PUSH2 0x35D PUSH2 0x830 JUMP JUMPDEST JUMPDEST SWAP1 PUSH0 MSTORE PUSH1 0x20 PUSH0 KECCAK256 SWAP1 PUSH1 0x3 MUL ADD PUSH0 ADD PUSH1 0x40 MLOAD PUSH1 0x20 ADD PUSH2 0x37C SWAP2 SWAP1 PUSH2 0xD4D JUMP JUMPDEST PUSH1 0x40 MLOAD PUSH1 0x20 DUP2 DUP4 SUB SUB DUP2 MSTORE SWAP1 PUSH1 0x40 MSTORE DUP1 MLOAD SWAP1 PUSH1 0x20 ADD KECCAK256 SUB PUSH2 0x4BC JUMPI PUSH0 PUSH1 0x1 DUP4 PUSH2 0x3A5 SWAP2 SWAP1 PUSH2 0xD90 JUMP JUMPDEST DUP2 SLOAD DUP2 LT PUSH2 0x3B6 JUMPI PUSH2 0x3B5 PUSH2 0x830 JUMP JUMPDEST JUMPDEST SWAP1 PUSH0 MSTORE PUSH1 0x20 PUSH0 KECCAK256 SWAP1 PUSH1 0x3 MUL ADD PUSH0 DUP3 DUP2 SLOAD DUP2 LT PUSH2 0x3D5 JUMPI PUSH2 0x3D4 PUSH2 0x830 JUMP JUMPDEST JUMPDEST SWAP1 PUSH0 MSTORE PUSH1 0x20 PUSH0 KECCAK256 SWAP1 PUSH1 0x3 MUL ADD PUSH0 DUP3 ADD DUP2 PUSH0 ADD SWAP1 DUP2 PUSH2 0x3F3 SWAP2 SWAP1 PUSH2 0xDD8 JUMP JUMPDEST POP PUSH1 0x1 DUP3 ADD PUSH0 SWAP1 SLOAD SWAP1 PUSH2 0x100 EXP SWAP1 DIV PUSH1 0xFF AND DUP2 PUSH1 0x1 ADD PUSH0 PUSH2 0x100 EXP DUP2 SLOAD DUP2 PUSH1 0xFF MUL NOT AND SWAP1 DUP4 ISZERO ISZERO MUL OR SWAP1 SSTORE POP PUSH1 0x2 DUP3 ADD SLOAD DUP2 PUSH1 0x2 ADD SSTORE SWAP1 POP POP PUSH0 DUP1 SLOAD DUP1 PUSH2 0x43D JUMPI PUSH2 0x43C PUSH2 0xEBD JUMP JUMPDEST JUMPDEST PUSH1 0x1 SWAP1 SUB DUP2 DUP2 SWAP1 PUSH0 MSTORE PUSH1 0x20 PUSH0 KECCAK256 SWAP1 PUSH1 0x3 MUL ADD PUSH0 DUP1 DUP3 ADD PUSH0 PUSH2 0x45E SWAP2 SWAP1 PUSH2 0x4F0 JUMP JUMPDEST PUSH1 0x1 DUP3 ADD PUSH0 PUSH2 0x100 EXP DUP2 SLOAD SWAP1 PUSH1 0xFF MUL NOT AND SWAP1 SSTORE PUSH1 0x2 DUP3 ADD PUSH0 SWAP1 SSTORE POP POP SWAP1 SSTORE PUSH32 0x44874D5E319F7C117163EA611938149D526DA88A45B36C80C35240D2FC03ED41 DUP4 TIMESTAMP PUSH1 0x40 MLOAD PUSH2 0x4AD SWAP3 SWAP2 SWAP1 PUSH2 0xF41 JUMP JUMPDEST PUSH1 0x40 MLOAD DUP1 SWAP2 SUB SWAP1 LOG1 POP POP PUSH2 0x4CC JUMP JUMPDEST DUP1 DUP1 PUSH1 0x1 ADD SWAP2 POP POP PUSH2 0x31C JUMP JUMPDEST POP POP JUMPDEST POP JUMP JUMPDEST PUSH1 0x40 MLOAD DUP1 PUSH1 0x60 ADD PUSH1 0x40 MSTORE DUP1 PUSH1 0x60 DUP2 MSTORE PUSH1 0x20 ADD PUSH0 ISZERO ISZERO DUP2 MSTORE PUSH1 0x20 ADD PUSH0 DUP2 MSTORE POP SWAP1 JUMP JUMPDEST POP DUP1 SLOAD PUSH2 0x4FC SWAP1 PUSH2 0x88A JUMP JUMPDEST PUSH0 DUP3 SSTORE DUP1 PUSH1 0x1F LT PUSH2 0x50D JUMPI POP PUSH2 0x52A JUMP JUMPDEST PUSH1 0x1F ADD PUSH1 0x20 SWAP1 DIV SWAP1 PUSH0 MSTORE PUSH1 0x20 PUSH0 KECCAK256 SWAP1 DUP2 ADD SWAP1 PUSH2 0x529 SWAP2 SWAP1 PUSH2 0x52D JUMP JUMPDEST JUMPDEST POP JUMP JUMPDEST JUMPDEST DUP1 DUP3 GT ISZERO PUSH2 0x544 JUMPI PUSH0 DUP2 PUSH0 SWAP1 SSTORE POP PUSH1 0x1 ADD PUSH2 0x52E JUMP JUMPDEST POP SWAP1 JUMP JUMPDEST PUSH0 PUSH1 0x40 MLOAD SWAP1 POP SWAP1 JUMP JUMPDEST PUSH0 DUP1 REVERT JUMPDEST PUSH0 DUP1 REVERT JUMPDEST PUSH0 DUP2 SWAP1 POP SWAP2 SWAP1 POP JUMP JUMPDEST PUSH2 0x56B DUP2 PUSH2 0x559 JUMP JUMPDEST DUP2 EQ PUSH2 0x575 JUMPI PUSH0 DUP1 REVERT JUMPDEST POP JUMP JUMPDEST PUSH0 DUP2 CALLDATALOAD SWAP1 POP PUSH2 0x586 DUP2 PUSH2 0x562 JUMP JUMPDEST SWAP3 SWAP2 POP POP JUMP JUMPDEST PUSH0 PUSH1 0x20 DUP3 DUP5 SUB SLT ISZERO PUSH2 0x5A1 JUMPI PUSH2 0x5A0 PUSH2 0x551 JUMP JUMPDEST JUMPDEST PUSH0 PUSH2 0x5AE DUP5 DUP3 DUP6 ADD PUSH2 0x578 JUMP JUMPDEST SWAP2 POP POP SWAP3 SWAP2 POP POP JUMP JUMPDEST PUSH0 DUP2 MLOAD SWAP1 POP SWAP2 SWAP1 POP JUMP JUMPDEST PUSH0 DUP3 DUP3 MSTORE PUSH1 0x20 DUP3 ADD SWAP1 POP SWAP3 SWAP2 POP POP JUMP JUMPDEST DUP3 DUP2 DUP4 MCOPY PUSH0 DUP4 DUP4 ADD MSTORE POP POP POP JUMP JUMPDEST PUSH0 PUSH1 0x1F NOT PUSH1 0x1F DUP4 ADD AND SWAP1 POP SWAP2 SWAP1 POP JUMP JUMPDEST PUSH0 PUSH2 0x5F9 DUP3 PUSH2 0x5B7 JUMP JUMPDEST PUSH2 0x603 DUP2 DUP6 PUSH2 0x5C1 JUMP JUMPDEST SWAP4 POP PUSH2 0x613 DUP2 DUP6 PUSH1 0x20 DUP7 ADD PUSH2 0x5D1 JUMP JUMPDEST PUSH2 0x61C DUP2 PUSH2 0x5DF JUMP JUMPDEST DUP5 ADD SWAP2 POP POP SWAP3 SWAP2 POP POP JUMP JUMPDEST PUSH0 DUP2 ISZERO ISZERO SWAP1 POP SWAP2 SWAP1 POP JUMP JUMPDEST PUSH2 0x63B DUP2 PUSH2 0x627 JUMP JUMPDEST DUP3 MSTORE POP POP JUMP JUMPDEST PUSH2 0x64A DUP2 PUSH2 0x559 JUMP JUMPDEST DUP3 MSTORE POP POP JUMP JUMPDEST PUSH0 PUSH1 0x60 DUP4 ADD PUSH0 DUP4 ADD MLOAD DUP5 DUP3 SUB PUSH0 DUP7 ADD MSTORE PUSH2 0x66A DUP3 DUP3 PUSH2 0x5EF JUMP JUMPDEST SWAP2 POP POP PUSH1 0x20 DUP4 ADD MLOAD PUSH2 0x67F PUSH1 0x20 DUP7 ADD DUP3 PUSH2 0x632 JUMP JUMPDEST POP PUSH1 0x40 DUP4 ADD MLOAD PUSH2 0x692 PUSH1 0x40 DUP7 ADD DUP3 PUSH2 0x641 JUMP JUMPDEST POP DUP1 SWAP2 POP POP SWAP3 SWAP2 POP POP JUMP JUMPDEST PUSH0 PUSH1 0x20 DUP3 ADD SWAP1 POP DUP2 DUP2 SUB PUSH0 DUP4 ADD MSTORE PUSH2 0x6B5 DUP2 DUP5 PUSH2 0x650 JUMP JUMPDEST SWAP1 POP SWAP3 SWAP2 POP POP JUMP JUMPDEST PUSH0 DUP1 REVERT JUMPDEST PUSH0 DUP1 REVERT JUMPDEST PUSH32 0x4E487B7100000000000000000000000000000000000000000000000000000000 PUSH0 MSTORE PUSH1 0x41 PUSH1 0x4 MSTORE PUSH1 0x24 PUSH0 REVERT JUMPDEST PUSH2 0x6FB DUP3 PUSH2 0x5DF JUMP JUMPDEST DUP2 ADD DUP2 DUP2 LT PUSH8 0xFFFFFFFFFFFFFFFF DUP3 GT OR ISZERO PUSH2 0x71A JUMPI PUSH2 0x719 PUSH2 0x6C5 JUMP JUMPDEST JUMPDEST DUP1 PUSH1 0x40 MSTORE POP POP POP JUMP JUMPDEST PUSH0 PUSH2 0x72C PUSH2 0x548 JUMP JUMPDEST SWAP1 POP PUSH2 0x738 DUP3 DUP3 PUSH2 0x6F2 JUMP JUMPDEST SWAP2 SWAP1 POP JUMP JUMPDEST PUSH0 PUSH8 0xFFFFFFFFFFFFFFFF DUP3 GT ISZERO PUSH2 0x757 JUMPI PUSH2 0x756 PUSH2 0x6C5 JUMP JUMPDEST JUMPDEST PUSH2 0x760 DUP3 PUSH2 0x5DF JUMP JUMPDEST SWAP1 POP PUSH1 0x20 DUP2 ADD SWAP1 POP SWAP2 SWAP1 POP JUMP JUMPDEST DUP3 DUP2 DUP4 CALLDATACOPY PUSH0 DUP4 DUP4 ADD MSTORE POP POP POP JUMP JUMPDEST PUSH0 PUSH2 0x78D PUSH2 0x788 DUP5 PUSH2 0x73D JUMP JUMPDEST PUSH2 0x723 JUMP JUMPDEST SWAP1 POP DUP3 DUP2 MSTORE PUSH1 0x20 DUP2 ADD DUP5 DUP5 DUP5 ADD GT ISZERO PUSH2 0x7A9 JUMPI PUSH2 0x7A8 PUSH2 0x6C1 JUMP JUMPDEST JUMPDEST PUSH2 0x7B4 DUP5 DUP3 DUP6 PUSH2 0x76D JUMP JUMPDEST POP SWAP4 SWAP3 POP POP POP JUMP JUMPDEST PUSH0 DUP3 PUSH1 0x1F DUP4 ADD SLT PUSH2 0x7D0 JUMPI PUSH2 0x7CF PUSH2 0x6BD JUMP JUMPDEST JUMPDEST DUP2 CALLDATALOAD PUSH2 0x7E0 DUP5 DUP3 PUSH1 0x20 DUP7 ADD PUSH2 0x77B JUMP JUMPDEST SWAP2 POP POP SWAP3 SWAP2 POP POP JUMP JUMPDEST PUSH0 PUSH1 0x20 DUP3 DUP5 SUB SLT ISZERO PUSH2 0x7FE JUMPI PUSH2 0x7FD PUSH2 0x551 JUMP JUMPDEST JUMPDEST PUSH0 DUP3 ADD CALLDATALOAD PUSH8 0xFFFFFFFFFFFFFFFF DUP2 GT ISZERO PUSH2 0x81B JUMPI PUSH2 0x81A PUSH2 0x555 JUMP JUMPDEST JUMPDEST PUSH2 0x827 DUP5 DUP3 DUP6 ADD PUSH2 0x7BC JUMP JUMPDEST SWAP2 POP POP SWAP3 SWAP2 POP POP JUMP JUMPDEST PUSH32 0x4E487B7100000000000000000000000000000000000000000000000000000000 PUSH0 MSTORE PUSH1 0x32 PUSH1 0x4 MSTORE PUSH1 0x24 PUSH0 REVERT JUMPDEST PUSH32 0x4E487B7100000000000000000000000000000000000000000000000000000000 PUSH0 MSTORE PUSH1 0x22 PUSH1 0x4 MSTORE PUSH1 0x24 PUSH0 REVERT JUMPDEST PUSH0 PUSH1 0x2 DUP3 DIV SWAP1 POP PUSH1 0x1 DUP3 AND DUP1 PUSH2 0x8A1 JUMPI PUSH1 0x7F DUP3 AND SWAP2 POP JUMPDEST PUSH1 0x20 DUP3 LT DUP2 SUB PUSH2 0x8B4 JUMPI PUSH2 0x8B3 PUSH2 0x85D JUMP JUMPDEST JUMPDEST POP SWAP2 SWAP1 POP JUMP JUMPDEST PUSH0 DUP2 SWAP1 POP DUP2 PUSH0 MSTORE PUSH1 0x20 PUSH0 KECCAK256 SWAP1 POP SWAP2 SWAP1 POP JUMP JUMPDEST PUSH0 DUP2 SLOAD PUSH2 0x8D8 DUP2 PUSH2 0x88A JUMP JUMPDEST PUSH2 0x8E2 DUP2 DUP7 PUSH2 0x5C1 JUMP JUMPDEST SWAP5 POP PUSH1 0x1 DUP3 AND PUSH0 DUP2 EQ PUSH2 0x8FC JUMPI PUSH1 0x1 DUP2 EQ PUSH2 0x912 JUMPI PUSH2 0x944 JUMP JUMPDEST PUSH1 0xFF NOT DUP4 AND DUP7 MSTORE DUP2 ISZERO ISZERO PUSH1 0x20 MUL DUP7 ADD SWAP4 POP PUSH2 0x944 JUMP JUMPDEST PUSH2 0x91B DUP6 PUSH2 0x8BA JUMP JUMPDEST PUSH0 JUMPDEST DUP4 DUP2 LT ISZERO PUSH2 0x93C JUMPI DUP2 SLOAD DUP2 DUP10 ADD MSTORE PUSH1 0x1 DUP3 ADD SWAP2 POP PUSH1 0x20 DUP2 ADD SWAP1 POP PUSH2 0x91D JUMP JUMPDEST DUP1 DUP9 ADD SWAP6 POP POP POP JUMPDEST POP POP POP SWAP3 SWAP2 POP POP JUMP JUMPDEST PUSH0 DUP2 PUSH0 SHR SWAP1 POP SWAP2 SWAP1 POP JUMP JUMPDEST PUSH0 PUSH1 0xFF DUP3 AND SWAP1 POP SWAP2 SWAP1 POP JUMP JUMPDEST PUSH0 PUSH2 0x976 PUSH2 0x971 DUP4 PUSH2 0x94D JUMP JUMPDEST PUSH2 0x958 JUMP JUMPDEST SWAP1 POP SWAP2 SWAP1 POP JUMP JUMPDEST PUSH0 DUP2 SWAP1 POP SWAP2 SWAP1 POP JUMP JUMPDEST PUSH0 PUSH2 0x998 PUSH2 0x993 DUP4 PUSH2 0x94D JUMP JUMPDEST PUSH2 0x97D JUMP JUMPDEST SWAP1 POP SWAP2 SWAP1 POP JUMP JUMPDEST PUSH0 PUSH1 0x60 DUP4 ADD PUSH0 DUP1 DUP5 ADD DUP6 DUP4 SUB PUSH0 DUP8 ADD MSTORE PUSH2 0x9B9 DUP4 DUP3 PUSH2 0x8CC JUMP JUMPDEST SWAP3 POP POP PUSH1 0x1 DUP5 ADD SLOAD SWAP1 POP PUSH2 0x9CC DUP2 PUSH2 0x964 JUMP JUMPDEST PUSH2 0x9D9 PUSH1 0x20 DUP8 ADD DUP3 PUSH2 0x632 JUMP JUMPDEST POP PUSH1 0x2 DUP5 ADD SLOAD SWAP1 POP PUSH2 0x9EA DUP2 PUSH2 0x986 JUMP JUMPDEST PUSH2 0x9F7 PUSH1 0x40 DUP8 ADD DUP3 PUSH2 0x641 JUMP JUMPDEST POP DUP2 SWAP3 POP POP POP SWAP3 SWAP2 POP POP JUMP JUMPDEST PUSH0 PUSH1 0x20 DUP3 ADD SWAP1 POP DUP2 DUP2 SUB PUSH0 DUP4 ADD MSTORE PUSH2 0xA1B DUP2 DUP5 PUSH2 0x99F JUMP JUMPDEST SWAP1 POP SWAP3 SWAP2 POP POP JUMP JUMPDEST PUSH0 PUSH1 0x20 PUSH1 0x1F DUP4 ADD DIV SWAP1 POP SWAP2 SWAP1 POP JUMP JUMPDEST PUSH0 DUP3 DUP3 SHL SWAP1 POP SWAP3 SWAP2 POP POP JUMP JUMPDEST PUSH0 PUSH1 0x8 DUP4 MUL PUSH2 0xA6D PUSH32 0xFFFFFFFFFFFFFFFFFFFFFFFFFFFFFFFFFFFFFFFFFFFFFFFFFFFFFFFFFFFFFFFF DUP3 PUSH2 0xA32 JUMP JUMPDEST PUSH2 0xA77 DUP7 DUP4 PUSH2 0xA32 JUMP JUMPDEST SWAP6 POP DUP1 NOT DUP5 AND SWAP4 POP DUP1 DUP7 AND DUP5 OR SWAP3 POP POP POP SWAP4 SWAP3 POP POP POP JUMP JUMPDEST PUSH0 DUP2 SWAP1 POP SWAP2 SWAP1 POP JUMP JUMPDEST PUSH0 PUSH2 0xAB2 PUSH2 0xAAD PUSH2 0xAA8 DUP5 PUSH2 0x559 JUMP JUMPDEST PUSH2 0xA8F JUMP JUMPDEST PUSH2 0x559 JUMP JUMPDEST SWAP1 POP SWAP2 SWAP1 POP JUMP JUMPDEST PUSH0 DUP2 SWAP1 POP SWAP2 SWAP1 POP JUMP JUMPDEST PUSH2 0xACB DUP4 PUSH2 0xA98 JUMP JUMPDEST PUSH2 0xADF PUSH2 0xAD7 DUP3 PUSH2 0xAB9 JUMP JUMPDEST DUP5 DUP5 SLOAD PUSH2 0xA3E JUMP JUMPDEST DUP3 SSTORE POP POP POP POP JUMP JUMPDEST PUSH0 SWAP1 JUMP JUMPDEST PUSH2 0xAF3 PUSH2 0xAE7 JUMP JUMPDEST PUSH2 0xAFE DUP2 DUP5 DUP5 PUSH2 0xAC2 JUMP JUMPDEST POP POP POP JUMP JUMPDEST JUMPDEST DUP2 DUP2 LT ISZERO PUSH2 0xB21 JUMPI PUSH2 0xB16 PUSH0 DUP3 PUSH2 0xAEB JUMP JUMPDEST PUSH1 0x1 DUP2 ADD SWAP1 POP PUSH2 0xB04 JUMP JUMPDEST POP POP JUMP JUMPDEST PUSH1 0x1F DUP3 GT ISZERO PUSH2 0xB66 JUMPI PUSH2 0xB37 DUP2 PUSH2 0x8BA JUMP JUMPDEST PUSH2 0xB40 DUP5 PUSH2 0xA23 JUMP JUMPDEST DUP2 ADD PUSH1 0x20 DUP6 LT ISZERO PUSH2 0xB4F JUMPI DUP2 SWAP1 POP JUMPDEST PUSH2 0xB63 PUSH2 0xB5B DUP6 PUSH2 0xA23 JUMP JUMPDEST DUP4 ADD DUP3 PUSH2 0xB03 JUMP JUMPDEST POP POP JUMPDEST POP POP POP JUMP JUMPDEST PUSH0 DUP3 DUP3 SHR SWAP1 POP SWAP3 SWAP2 POP POP JUMP JUMPDEST PUSH0 PUSH2 0xB86 PUSH0 NOT DUP5 PUSH1 0x8 MUL PUSH2 0xB6B JUMP JUMPDEST NOT DUP1 DUP4 AND SWAP2 POP POP SWAP3 SWAP2 POP POP JUMP JUMPDEST PUSH0 PUSH2 0xB9E DUP4 DUP4 PUSH2 0xB77 JUMP JUMPDEST SWAP2 POP DUP3 PUSH1 0x2 MUL DUP3 OR SWAP1 POP SWAP3 SWAP2 POP POP JUMP JUMPDEST PUSH2 0xBB7 DUP3 PUSH2 0x5B7 JUMP JUMPDEST PUSH8 0xFFFFFFFFFFFFFFFF DUP2 GT ISZERO PUSH2 0xBD0 JUMPI PUSH2 0xBCF PUSH2 0x6C5 JUMP JUMPDEST JUMPDEST PUSH2 0xBDA DUP3 SLOAD PUSH2 0x88A JUMP JUMPDEST PUSH2 0xBE5 DUP3 DUP3 DUP6 PUSH2 0xB25 JUMP JUMPDEST PUSH0 PUSH1 0x20 SWAP1 POP PUSH1 0x1F DUP4 GT PUSH1 0x1 DUP2 EQ PUSH2 0xC16 JUMPI PUSH0 DUP5 ISZERO PUSH2 0xC04 JUMPI DUP3 DUP8 ADD MLOAD SWAP1 POP JUMPDEST PUSH2 0xC0E DUP6 DUP3 PUSH2 0xB93 JUMP JUMPDEST DUP7 SSTORE POP PUSH2 0xC75 JUMP JUMPDEST PUSH1 0x1F NOT DUP5 AND PUSH2 0xC24 DUP7 PUSH2 0x8BA JUMP JUMPDEST PUSH0 JUMPDEST DUP3 DUP2 LT ISZERO PUSH2 0xC4B JUMPI DUP5 DUP10 ADD MLOAD DUP3 SSTORE PUSH1 0x1 DUP3 ADD SWAP2 POP PUSH1 0x20 DUP6 ADD SWAP5 POP PUSH1 0x20 DUP2 ADD SWAP1 POP PUSH2 0xC26 JUMP JUMPDEST DUP7 DUP4 LT ISZERO PUSH2 0xC68 JUMPI DUP5 DUP10 ADD MLOAD PUSH2 0xC64 PUSH1 0x1F DUP10 AND DUP3 PUSH2 0xB77 JUMP JUMPDEST DUP4 SSTORE POP JUMPDEST PUSH1 0x1 PUSH1 0x2 DUP9 MUL ADD DUP9 SSTORE POP POP POP JUMPDEST POP POP POP POP POP POP JUMP JUMPDEST PUSH0 DUP2 SWAP1 POP SWAP3 SWAP2 POP POP JUMP JUMPDEST PUSH0 PUSH2 0xC91 DUP3 PUSH2 0x5B7 JUMP JUMPDEST PUSH2 0xC9B DUP2 DUP6 PUSH2 0xC7D JUMP JUMPDEST SWAP4 POP PUSH2 0xCAB DUP2 DUP6 PUSH1 0x20 DUP7 ADD PUSH2 0x5D1 JUMP JUMPDEST DUP1 DUP5 ADD SWAP2 POP POP SWAP3 SWAP2 POP POP JUMP JUMPDEST PUSH0 PUSH2 0xCC2 DUP3 DUP5 PUSH2 0xC87 JUMP JUMPDEST SWAP2 POP DUP2 SWAP1 POP SWAP3 SWAP2 POP POP JUMP JUMPDEST PUSH0 DUP2 SLOAD PUSH2 0xCD9 DUP2 PUSH2 0x88A JUMP JUMPDEST PUSH2 0xCE3 DUP2 DUP7 PUSH2 0xC7D JUMP JUMPDEST SWAP5 POP PUSH1 0x1 DUP3 AND PUSH0 DUP2 EQ PUSH2 0xCFD JUMPI PUSH1 0x1 DUP2 EQ PUSH2 0xD12 JUMPI PUSH2 0xD44 JUMP JUMPDEST PUSH1 0xFF NOT DUP4 AND DUP7 MSTORE DUP2 ISZERO ISZERO DUP3 MUL DUP7 ADD SWAP4 POP PUSH2 0xD44 JUMP JUMPDEST PUSH2 0xD1B DUP6 PUSH2 0x8BA JUMP JUMPDEST PUSH0 JUMPDEST DUP4 DUP2 LT ISZERO PUSH2 0xD3C JUMPI DUP2 SLOAD DUP2 DUP10 ADD MSTORE PUSH1 0x1 DUP3 ADD SWAP2 POP PUSH1 0x20 DUP2 ADD SWAP1 POP PUSH2 0xD1D JUMP JUMPDEST DUP4 DUP9 ADD SWAP6 POP POP POP JUMPDEST POP POP POP SWAP3 SWAP2 POP POP JUMP JUMPDEST PUSH0 PUSH2 0xD58 DUP3 DUP5 PUSH2 0xCCD JUMP JUMPDEST SWAP2 POP DUP2 SWAP1 POP SWAP3 SWAP2 POP POP JUMP JUMPDEST PUSH32 0x4E487B7100000000000000000000000000000000000000000000000000000000 PUSH0 MSTORE PUSH1 0x11 PUSH1 0x4 MSTORE PUSH1 0x24 PUSH0 REVERT JUMPDEST PUSH0 PUSH2 0xD9A DUP3 PUSH2 0x559 JUMP JUMPDEST SWAP2 POP PUSH2 0xDA5 DUP4 PUSH2 0x559 JUMP JUMPDEST SWAP3 POP DUP3 DUP3 SUB SWAP1 POP DUP2 DUP2 GT ISZERO PUSH2 0xDBD JUMPI PUSH2 0xDBC PUSH2 0xD63 JUMP JUMPDEST JUMPDEST SWAP3 SWAP2 POP POP JUMP JUMPDEST PUSH0 DUP2 SLOAD SWAP1 POP PUSH2 0xDD1 DUP2 PUSH2 0x88A JUMP JUMPDEST SWAP1 POP SWAP2 SWAP1 POP JUMP JUMPDEST DUP2 DUP2 SUB PUSH2 0xDE6 JUMPI POP POP PUSH2 0xEBB JUMP JUMPDEST PUSH2 0xDEF DUP3 PUSH2 0xDC3 JUMP JUMPDEST PUSH8 0xFFFFFFFFFFFFFFFF DUP2 GT ISZERO PUSH2 0xE08 JUMPI PUSH2 0xE07 PUSH2 0x6C5 JUMP JUMPDEST JUMPDEST PUSH2 0xE12 DUP3 SLOAD PUSH2 0x88A JUMP JUMPDEST PUSH2 0xE1D DUP3 DUP3 DUP6 PUSH2 0xB25 JUMP JUMPDEST PUSH0 PUSH1 0x1F DUP4 GT PUSH1 0x1 DUP2 EQ PUSH2 0xE4A JUMPI PUSH0 DUP5 ISZERO PUSH2 0xE38 JUMPI DUP3 DUP8 ADD SLOAD SWAP1 POP JUMPDEST PUSH2 0xE42 DUP6 DUP3 PUSH2 0xB93 JUMP JUMPDEST DUP7 SSTORE POP PUSH2 0xEB4 JUMP JUMPDEST PUSH1 0x1F NOT DUP5 AND PUSH2 0xE58 DUP8 PUSH2 0x8BA JUMP JUMPDEST SWAP7 POP PUSH2 0xE63 DUP7 PUSH2 0x8BA JUMP JUMPDEST PUSH0 JUMPDEST DUP3 DUP2 LT ISZERO PUSH2 0xE8A JUMPI DUP5 DUP10 ADD SLOAD DUP3 SSTORE PUSH1 0x1 DUP3 ADD SWAP2 POP PUSH1 0x1 DUP6 ADD SWAP5 POP PUSH1 0x20 DUP2 ADD SWAP1 POP PUSH2 0xE65 JUMP JUMPDEST DUP7 DUP4 LT ISZERO PUSH2 0xEA7 JUMPI DUP5 DUP10 ADD SLOAD PUSH2 0xEA3 PUSH1 0x1F DUP10 AND DUP3 PUSH2 0xB77 JUMP JUMPDEST DUP4 SSTORE POP JUMPDEST PUSH1 0x1 PUSH1 0x2 DUP9 MUL ADD DUP9 SSTORE POP POP POP JUMPDEST POP POP POP POP POP POP JUMPDEST JUMP JUMPDEST PUSH32 0x4E487B7100000000000000000000000000000000000000000000000000000000 PUSH0 MSTORE PUSH1 0x31 PUSH1 0x4 MSTORE PUSH1 0x24 PUSH0 REVERT JUMPDEST PUSH0 DUP3 DUP3 MSTORE PUSH1 0x20 DUP3 ADD SWAP1 POP SWAP3 SWAP2 POP POP JUMP JUMPDEST PUSH0 PUSH2 0xF04 DUP3 PUSH2 0x5B7 JUMP JUMPDEST PUSH2 0xF0E DUP2 DUP6 PUSH2 0xEEA JUMP JUMPDEST SWAP4 POP PUSH2 0xF1E DUP2 DUP6 PUSH1 0x20 DUP7 ADD PUSH2 0x5D1 JUMP JUMPDEST PUSH2 0xF27 DUP2 PUSH2 0x5DF JUMP JUMPDEST DUP5 ADD SWAP2 POP POP SWAP3 SWAP2 POP POP JUMP JUMPDEST PUSH2 0xF3B DUP2 PUSH2 0x559 JUMP JUMPDEST DUP3 MSTORE POP POP JUMP JUMPDEST PUSH0 PUSH1 0x40 DUP3 ADD SWAP1 POP DUP2 DUP2 SUB PUSH0 DUP4 ADD MSTORE PUSH2 0xF59 DUP2 DUP6 PUSH2 0xEFA JUMP JUMPDEST SWAP1 POP PUSH2 0xF68 PUSH1 0x20 DUP4 ADD DUP5 PUSH2 0xF32 JUMP JUMPDEST SWAP4 SWAP3 POP POP POP JUMP INVALID LOG2 PUSH5 0x6970667358 0x22 SLT KECCAK256 DUP3 PUSH26 0xDCFE884FA6C767F3D8834E928580B198667CA8224D7295751B07 SLT 0xDC MSIZE 0xEB PUSH5 0x736F6C6343 STOP ADDMOD BYTE STOP CALLER "
		},
		"gasEstimates": {
			"creation": {
				"codeDepositCost": "801000",
				"executionCost": "836",
				"totalCost": "801836"
			},
			"external": {
				"agregarTarea(string)": "infinite",
				"completarTarea(uint256)": "infinite",
				"eliminarTarea(string)": "infinite",
				"obtenerTarea(uint256)": "infinite"
			}
		},
		"methodIdentifiers": {
			"agregarTarea(string)": "74200866",
			"completarTarea(uint256)": "67010e07",
			"eliminarTarea(string)": "9550975a",
			"obtenerTarea(uint256)": "25930687"
		}
	},
	"abi": [
		{
			"anonymous": false,
			"inputs": [
				{
					"components": [
						{
							"internalType": "string",
							"name": "descripcion",
							"type": "string"
						},
						{
							"internalType": "bool",
							"name": "completado",
							"type": "bool"
						},
						{
							"internalType": "uint256",
							"name": "timestamp",
							"type": "uint256"
						}
					],
					"indexed": false,
					"internalType": "struct ToDoList.Tarea",
					"name": "tarea",
					"type": "tuple"
				}
			],
			"name": "ToDoList_TareaAgregada",
			"type": "event"
		},
		{
			"anonymous": false,
			"inputs": [
				{
					"components": [
						{
							"internalType": "string",
							"name": "descripcion",
							"type": "string"
						},
						{
							"internalType": "bool",
							"name": "completado",
							"type": "bool"
						},
						{
							"internalType": "uint256",
							"name": "timestamp",
							"type": "uint256"
						}
					],
					"indexed": false,
					"internalType": "struct ToDoList.Tarea",
					"name": "tarea",
					"type": "tuple"
				}
			],
			"name": "ToDoList_TareaCompletada",
			"type": "event"
		},
		{
			"anonymous": false,
			"inputs": [
				{
					"indexed": false,
					"internalType": "string",
					"name": "descripcion",
					"type": "string"
				},
				{
					"indexed": false,
					"internalType": "uint256",
					"name": "timestamp",
					"type": "uint256"
				}
			],
			"name": "ToDoList_TareaEliminada",
			"type": "event"
		},
		{
			"inputs": [
				{
					"internalType": "string",
					"name": "_descripcion",
					"type": "string"
				}
			],
			"name": "agregarTarea",
			"outputs": [],
			"stateMutability": "nonpayable",
			"type": "function"
		},
		{
			"inputs": [
				{
					"internalType": "uint256",
					"name": "_index",
					"type": "uint256"
				}
			],
			"name": "completarTarea",
			"outputs": [],
			"stateMutability": "nonpayable",
			"type": "function"
		},
		{
			"inputs": [
				{
					"internalType": "string",
					"name": "_descripcion",
					"type": "string"
				}
			],
			"name": "eliminarTarea",
			"outputs": [],
			"stateMutability": "nonpayable",
			"type": "function"
		},
		{
			"inputs": [
				{
					"internalType": "uint256",
					"name": "_index",
					"type": "uint256"
				}
			],
			"name": "obtenerTarea",
			"outputs": [
				{
					"components": [
						{
							"internalType": "string",
							"name": "descripcion",
							"type": "string"
						},
						{
							"internalType": "bool",
							"name": "completado",
							"type": "bool"
						},
						{
							"internalType": "uint256",
							"name": "timestamp",
							"type": "uint256"
						}
					],
					"internalType": "struct ToDoList.Tarea",
					"name": "_tarea",
					"type": "tuple"
				}
			],
			"stateMutability": "view",
			"type": "function"
		}
	]
}